:100000000C94150F0C94A57D0C947A7D0C944F7D67
:100010000C94247D0C94F97C0C94CE7C0C94A37CE1
:100020000C94787C0C94460F0C94460F0C94460F5D
:100030000C94460F0C945F740C94460F0C94460F6E
:100040000C94460F0C949F850C94460F0C94460F0D
:100050000C94460F0C94460F0C94B57E0C942E7C99
:100060000C94460F0C94076A0C94460F0C94460FA0
:100070000C94460F0C94460F0C94460F0C94460FAC
:100080000C94888E0C94460F0C94460F0C94460FDB
:100090000C94460F0C94460F0C94460F0C94460F8C
:1000A0000C94460F0C94460F0C945A8E0C94460FE9
:1000B0000C94460F0C94460F0C94460F0C942C8E07
:1000C0000C94460F0C94460F0C94460F0C94460F5C
:1000D0000C94460F0C94460F0C94AA220C946B229D
:1000E0000C94460F084AD73B3BCE016E84BCBFFD43
:1000F000C12F3D6C74319ABD56833DDA3D00C77FF8
:1001000011BED9E4BB4C3E916BAAAABE0000008090
:100110003F05A84CCDB2D44EB93836A9020C50B91F
:10012000918688083CA6AAAA2ABE000000803F004B
:100130000C94C93D0C9485800C94B36A0C949B3844
:100140000C94AC790C949F6A0C94C06A0C94B679A8
:100150000C94EE6A0C94533B0C94613D0C944779DB
:100160000C941F370C94277F0C9432800C948E795A
:100170000C94D7390C94B13D0C948A3A0C94956A3E
:100180000C948E6A0C945B800C9498790C94603A71
:100190000C94C16A0C94926A0C94EC3A0C94C56A63
:1001A0000C948B3D0C948B800C94E73B0C949B6AD5
:1001B0000C94AD6A0C94480F0C9479800C943138EF
:1001C0000C94373D0C946B790C94143B0C9461792E
:1001D0000C94293F0C948C110C94356A0C94F311F7
:1001E0000C94CA0F0C9488800C944E390C94593797
:1001F0000C94A56A0C9482800C943B3B0C94BA3A04
:100200000C948F0F0C9424790C94B10F0C948D11D5
:100210000C94806A0C9458290C948A6A0C94374088
:100220000C94BB6A0C9475790C9439370C94B76AAA
:100230000C94F0390C944D800C94A6390C94BE3774
:100240000C94A2790C9477370C94A96A0C94153EFF
:100250000C941C790C943D790C94A43B0C947680FE
:100260000C9498AF0C948D370C94F0AD0C94840FD3
:100270000C944F790C947F800C9495800C94297980
:100280000C94EB1D0C94EC360C946A3E0C94337970
:100290000C943E3A0C9484790C94866A0C945779A9
:1002A0000C94D23D0C947C804E414E494E49545999
:1002B000494E46CDCCCC3D0AD7233C17B7D1387731
:1002C000CC2B329595E6241FB14F0A000020410047
:1002D00000C84200401C4620BCBE4CCA1B0E5AAE91
:1002E000C59D74434F4D4D554E49434154494F4E62
:1002F0000044525952554E004552524F52530049F4
:100300004E464F004543484F004A3032004A31368E
:10031000004B696C6C6564004A333320004D617892
:100320005431004A333320004D61785430004A3351
:100330003320004D696E5431004A333320004D693B
:100340006E5430004A3333200052656164534420B8
:1003500063617264206572726F7221004A333320C8
:100360000056312E332E325F4F7267004A333320EE
:100370000041333156200041333156200047323896
:100380000A473239004A3234004A3236004A32349F
:10039000004132395620004A3032004A313200479B
:1003A0003930004731204525694635303000473126
:1003B00020452D302E314625690047312045302E0D
:1003C00031462569004731205A256946256900478D
:1003D00031205A2D302E31462569004731205A30C0
:1003E0002E31462569004731205925694625690087
:1003F000473120592D302E3146256900473120598B
:10040000302E314625690047312058256946256937
:1004100000473120582D302E3146256900473120C4
:1004200058302E31462569004739310047323800AF
:10043000473238205A004732382059004732382096
:1004400058004132305620004F4B004A3036004DA4
:100450003834004A3034004A3136004A30350045DD
:100460004E4400464E20004A3032003939393A397C
:100470003939004D0048004137562000413656209A
:100480002D2D2D0041365620005A3A2000593A2091
:1004900000583A200041355600413456200041337F
:1004A000562000413256200041315620004130563E
:1004B000200045525220004D313130004A31300089
:1004C0005072696E7465722073746F707065642009
:1004D00064756520746F206572726F72732E20468A
:1004E000697820746865206572726F7220616E642D
:1004F00020757365204D39393920746F207265730A
:10050000746172742E202854656D70657261747503
:1005100072652069732072657365742E205365744B
:1005200020697420616674657220726573746172EB
:1005300074696E67290A004E6F204C696E65204E03
:10054000756D626572207769746820636865636B96
:1005500073756D2C204C617374204C696E653A2064
:10056000004E6F20436865636B73756D2077697407
:1005700068206C696E65206E756D6265722C204C0A
:10058000617374204C696E653A2000636865636B23
:1005900073756D206D69736D617463682C204C6197
:1005A0007374204C696E653A20004C696E65204E6C
:1005B000756D626572206973206E6F74204C617373
:1005C00074204C696E65204E756D6265722B312CFE
:1005D000204C617374204C696E653A20004D3131B6
:1005E00030004A3134004D3331004D38342058202A
:1005F00059205A2045005344207265616420657279
:10060000726F720A00446F6E65207072696E746951
:100610006E672066696C650A0020496E76616C69B8
:100620006420657874727564657220000000CD43A3
:100630000000CD430000E243000020C1000040C0A4
:1006400000000000205A3A200020593A200042655C
:100650006420583A200020706F736974696F6E20AF
:100660006F7574206F662072616E67652E0A003F99
:1006700050726F626520002066697273740A005AB6
:100680000059005800486F6D652000203D3D3D3DFC
:1006900000202020200042696C696E656172204C48
:1006A0006576656C696E6720477269643A0A200056
:1006B0004A32350028422961636B00284629726F4F
:1006C0006E74002852296967687400284C29656691
:1006D000740052756E6E696E6720696E20445259BF
:1006E0002D52554E206D6F64650A00473239204106
:1006F00075746F20426564204C6576656C696E6721
:100700000A003F2856296572626F7365204C657632
:10071000656C20697320696D706C61757369626CBA
:10072000652028302D34292E0A0044656C657469D3
:100730006F6E206661696C65642C2046696C653A51
:10074000200046696C652064656C657465643A00D8
:100750006F70656E206661696C65642C2046696CFB
:10076000653A20002042403A0020403A00202F0005
:1007700020423A00202F0020543A004A3033004AE9
:100780003034004A3037003F0A0020573A004A30E0
:1007900036004A3039003F0A0020573A004A3038C4
:1007A00000205A3A0020593A0020436F756E742099
:1007B000583A200020453A00205A3A0020593A0081
:1007C000583A0020643A0020693A0020703A004B01
:1007D00064200023646566696E65202044454641B7
:1007E000554C545F004B69200023646566696E6553
:1007F000202044454641554C545F004B7020002357
:10080000646566696E65202044454641554C545FD9
:1008100000504944204175746F74756E6520666997
:100820006E69736865642120507574207468652052
:100830006C617374204B702C204B6920616E6420B6
:100840004B6420636F6E7374616E74732066726F95
:100850006D2062656C6F7720696E746F20436F6ED8
:1008600066696775726174696F6E2E680A00504917
:1008700044204175746F74756E65206661696C659E
:1008800064212074696D656F75740A0050494420B5
:100890004175746F74756E65206661696C6564215D
:1008A0002054656D706572617475726520746F6F28
:1008B00020686967680A00204B643A2000204B6971
:1008C0003A2000204B703A20000A20436C61737379
:1008D000696320504944200A002054753A200020C2
:1008E0004B753A2000206D61783A2000206D696ECA
:1008F0003A200020643A200020626961733A2000A7
:1009000020746F6F206C6F6E6720657874727573DA
:10091000696F6E2070726576656E7465640A00207A
:10092000636F6C6420657874727573696F6E207084
:10093000726576656E7465640A0047322F4733200E
:1009400062616420706172616D65746572730A0022
:100950004A303400205A3A200020593A200042659B
:100960006420583A2000456E642066696C65206CEE
:100970006973740A00426567696E2066696C652058
:100980006C6973740A005344207072696E74696EE6
:1009900067206279746520004E6F74205344207084
:1009A00072696E74696E670A002569730025696D46
:1009B00020256973002569682025696D20256973E4
:1009C00000256964202569682025696D20256973E3
:1009D0000025697920256964202569682025696DCD
:1009E00020256973005072696E742074696D653AD0
:1009F00020006F6666000403FF02F802F102E302C2
:100A000044454255473A006F6B0053657474696EF4
:100A1000672054726176656C20416363656C657212
:100A20006174696F6E3A200053657474696E672053
:100A30005265747261637420416363656C657261B1
:100A400074696F6E3A200053657474696E67205044
:100A500072696E7420416363656C65726174696F5D
:100A60006E3A200053657474696E67205072696E27
:100A70007420616E642054726176656C20416363FA
:100A8000656C65726174696F6E3A20005A20456E1C
:100A90006473746F702041646A7573746D656E74ED
:100AA0002073657420746F20286D6D293A00205AD8
:100AB00000205900580020204D61783A2000205A2B
:100AC00000205900580020204D696E3A20004F6EDA
:100AD00020004F666600536F667420656E64737401
:100AE0006F70733A20003A200020536572766F20B1
:100AF00000206F7574206F662072616E67650A0052
:100B0000536572766F200020643A0020693A002015
:100B1000703A0043290A0061626C656420286D699F
:100B20006E2074656D702000436F6C64206578746E
:100B30007275646573206172652000546F6F206662
:100B400061722066726F6D207265666572656E6394
:100B50006520706F696E740A003A20007A5F6D61DB
:100B6000783A20007A5F6D696E3A20005A204F660D
:100B700066736574004163746976652045787472A4
:100B8000756465723A2000556E6B6E6F776E2063E8
:100B90006F6D6D616E643A202200446F6E652C208B
:100BA0004175746F204C6576656C696E672077615E
:100BB0007320616374697665642100446F6E652CEF
:100BC000204D616E75616C204C6576656C696E6751
:100BD00020776173206163746976656421005265D2
:100BE00073656E643A20006F6B004A3031004A3002
:100BF00030004A3135004A323300000020C1000085
:100C000040C0000000005761726E696E673A20486C
:100C10006F6D696E672042756D70204469766973E7
:100C20006F72203C20310A000000A0400000A0406C
:100C3000000000410000D2430080CE430000E243A8
:100C4000FFFFFF7C3C3E5E2B3D3F2F5B5D3B2C2A34
:100C5000225C004572726F722077726974696E67E8
:100C600020746F20454550524F4D210A000300C9A2
:100C70000233002C013C0022014500180151000EF6
:100C8000015D0004016F00FA008100F0009900E6A8
:100C900000B700DC00DB00D2000501C8003E01BE49
:100CA000008001B400D101AA003702A000B2029670
:100CB0000042038C00F0038200B604780094056EB5
:100CC000007E06640071075A005B08500030094638
:100CD00000EA093C00830A3200FB0A2800520B1E7E
:100CE000008E0B1400B80B0A00D60B0000206279AE
:100CF000746573290A0053657474696E67732053B1
:100D0000746F726564202800454550524F4D206332
:100D10006865636B73756D206D69736D617463686D
:100D20000A00206279746573290A002073746F7257
:100D300065642073657474696E677320726574727C
:100D4000696576656420280048617264636F646534
:100D5000642044656661756C742053657474696EB3
:100D60006773204C6F616465640A0020204D38353C
:100D700031205A005A2D50726F6265204F6666739B
:100D8000657420286D6D293A0A0020204D323030DC
:100D90002044300A0020204D3230302044002044CE
:100DA000697361626C65640A0046696C616D656EA9
:100DB000742073657474696E67733A002044002070
:100DC000490020204D333034205000204400204979
:100DD0000020204D333031205000504944207365AD
:100DE0007474696E67733A0A0020204D36363620D7
:100DF0005A005A3220456E6473746F702061646AC1
:100E00007573746D656E7420286D6D293A0A002023
:100E10005A0020590020204D323036205800486FAB
:100E20006D65206F666673657420286D6D290A00F4
:100E3000204500205A002059002058002042002060
:100E4000540020204D323035205300416476616ECD
:100E5000636564207661726961626C65733A2053E0
:100E60003D4D696E20666565647261746520286D0C
:100E70006D2F73292C20543D4D696E20747261765C
:100E8000656C20666565647261746520286D6D2FE0
:100E900073292C20423D6D696E696D756D207365F7
:100EA000676D656E742074696D6520286D73292CDB
:100EB00020583D6D6178696D756D205859206A65BF
:100EC000726B20286D6D2F73292C20205A3D6D6187
:100ED00078696D756D205A206A65726B20286D6D7A
:100EE0002F73292C2020453D6D6178696D756D202B
:100EF00045206A65726B20286D6D2F73290A0020CA
:100F0000540020520020204D3230342050004163E4
:100F100063656C65726174696F6E733A20503D70E1
:100F200072696E74696E672C20523D7265747261CD
:100F3000637420616E6420543D74726176656C0A3E
:100F400000204500205A0020590020204D32303129
:100F50002058004D6178696D756D20416363656C43
:100F600065726174696F6E20286D6D2F7332293A36
:100F70000A00204500205A0020590020204D323020
:100F8000332058004D6178696D756D206665656424
:100F9000726174657320286D6D2F73293A0A0020E1
:100FA0004500205A0020590020204D393220580099
:100FB00053746570732070657220756E69743A0A97
:100FC000007A5F70726F62653A20007A325F6D69F5
:100FD0006E3A20007A5F6D696E3A2000795F6D6924
:100FE0006E3A2000785F6D696E3A20005265706F2E
:100FF0007274696E6720656E6473746F70207374A9
:10100000617475730A0020746F6F206C6F6E6720B7
:10101000657874727573696F6E2070726576656E2F
:101020007465640A004A31330020636F6C64206584
:101030007874727573696F6E2070726576656E7400
:1010400065640A0024F4D43050C38E20C2A2401735
:10105000828B7011127A910D816CD90AA861E10816
:10106000C7586607615143061E4B5D05C145A7047D
:101070001A411104093D9803713931034036DB02EE
:1010800065339102D4305402802E1D02632CEE0190
:10109000752AC501B028A001102781018F256401A0
:1010A0002B244B01E0223401AC211F018D200D01C6
:1010B000801FFC00841EED00971DDF00B81CD200CD
:1010C000E61BC600201BBC00641AB200B219A800BF
:1010D0000A19A0006A189900D117910040178B00D7
:1010E000B516840031167E00B31579003A157300E9
:1010F000C7146F0058146A00EE136600881363006B
:1011000025135E00C7125B006C12570015125400C5
:10111000C111510070114F0021114B00D610490030
:101120008D1047004610440002104200C00F4000DE
:10113000800F3E00420F3C00060F3B00CB0E3800F4
:10114000930E37005C0E3500270E3400F30D32008D
:10115000C10D3100900D3000600D2E00320D2D00BC
:10116000050D2C00D90C2B00AE0C2900850C290094
:101170005C0C2700350C27000E0C2600E80B240021
:10118000C40B2400A00B23007D0B23005A0B21006D
:10119000390B2100180B2000F80A1F00D90A1E0085
:1011A000BB0A1E009D0A1D00800A1D00630A1C0068
:1011B000470A1B002C0A1B00110A1A00F7091A0023
:1011C000DD091900C4091900AB09190092091700BB
:1011D0007B091800630917004C0916003609160030
:1011E000200916000A091500F5081500E00814008A
:1011F000CC081400B8081400A408140090081300C8
:101200007D0812006B0813005808120046081200EF
:101210003408110023081100120811000108110000
:10122000F0071000E0071000D0071000C007100002
:10123000B0070F00A107100091070E0083070F00F1
:1012400074070F0065070E0057070E0049070E00D0
:101250003B070D002E070E0020070D0013070D00A1
:1012600006070D00F9060C00ED060D00E0060C0067
:10127000D4060C00C8060C00BC060C00B0060C001E
:10128000A4060B0099060C008D060B0082060B00CD
:1012900077060B006C060B0061060A0057060B0070
:1012A0004C060A0042060A0038060A002E060A000A
:1012B00024060A001A060A001006090007060A009A
:1012C000FD050900F4050900EB050900E205090028
:1012D000D9050900D0050900C7050900BE050900A8
:1012E000B5050800AD050800A50509009C05080026
:1012F000940508008C050800840508007C0508009A
:10130000740508006C050700650508005D05070009
:10131000560508004E050700470507004005080070
:1013200038050700310507002A05070023050700D7
:101330001C050600160507000F0507000805060036
:1013400002050700FB040600F5040700EE04060092
:10135000E8040600E2040700DB040600D5040600EA
:10136000CF040600C9040600C3040600BD0406003D
:10137000B7040600B1040500AC040600A60406008C
:10138000A00405009B0406009504050090040600D7
:101390008A04050085040500800406007A0405001F
:1013A00075040500700405006B0405006604050063
:1013B000610405005C0405005704050052040500A3
:1013C0004D04050048040500430405003E040400E4
:1013D0003A04050035040500300404002C0405001F
:1013E00027040400230405001E0404001A0404005A
:1013F00016040500110404000D040400090405008E
:101400000404040000040400FC030400F8030400C6
:10141000F4030400F0030400EC030400E8030400F8
:10142000E4030400E0030400DC030400D803040028
:10143000D4030400D0030400CC030400C803030059
:10144000C503030024F404D9201BC40C5C0E9804CB
:10145000C4095F0265077101F405F900FB04B300DC
:1014600048048700C1036900580355000303450081
:10147000BE023A008402310053022A0029022500EC
:1014800004022000E4011C00C8011900AF0117008C
:101490009801140084011300710110006101100013
:1014A00051010E0043010D0036010B002B010B0012
:1014B00020010B00150109000C01090003010800BF
:1014C000FB000800F3000800EB000700E400060042
:1014D000DE000600D8000600D2000600CC000500A1
:1014E000C7000500C2000500BD000400B9000400EB
:1014F000B5000400B1000400AD000400A900040020
:10150000A5000300A20003009F0004009B0003004D
:101510009800030095000200930003009000030070
:101520008D0002008B00030088000200860002008C
:1015300084000300810002007F0002007D000200A1
:101540007B000200790002007700010076000200B3
:101550007400020072000100710002006F000200BE
:101560006D0001006C0002006A00010069000200C9
:1015700067000100660001006500010064000200D0
:101580006200010061000100600001005F000200D4
:101590005D0001005C0001005B0001005A000100D9
:1015A00059000100580001005700010056000100D9
:1015B00055000100540001005300000053000100D9
:1015C0005200010051000100500001004F000100D5
:1015D0004E0000004E0001004D0001004C000100D3
:1015E0004B0000004B0001004A00010049000100CF
:1015F00048000000480001004700010046000000CC
:1016000046000100450000004500010044000100C3
:1016100043000000430001004200000042000100BE
:101620004100000041000100400001003F000000B7
:101630003F0001003E0000003E0001003D000000B0
:101640003D0001003C0000003C0000003C000100A7
:101650003B0000003B0001003A0000003A0001009E
:101660003900000039000100380000003800000097
:10167000380001003700000037000100360000008C
:101680003600000036000100350000003500000083
:101690003500010034000000340000003400010077
:1016A000330000003300000033000100320000006E
:1016B0003200000032000100310000003100000063
:1016C0003100010030000000300000003000010057
:1016D0002F0000002F0000002F0000002F0001004D
:1016E0002E0000002E0000002E0001002D00000042
:1016F0002D0000002D0000002D0001002C00000036
:101700002C0000002C0000002C0001002B00000029
:101710002B0000002B0000002B0001002A0000001D
:101720002A0000002A0000002A0001002900000011
:101730002900000029000000290000002900010004
:1017400028000000280000002800000028000000F9
:1017500028000100270000002700000027000000EB
:1017600027000000270001002600000026000000DE
:1017700026000000260000002600010025000000D1
:1017800025000000250000002500000025000000C5
:1017900025000100240000002400000024000000B7
:1017A00024000000240001002300000023000000AA
:1017B000230000002300000023000000230000009D
:1017C000230001002200000022000000220000008F
:1017D0002200000022000000220001002100000081
:1017E0002100000021000000210000002100000075
:1017F0002100000021000100200000002000000066
:101800002000000020000000200000002000000058
:1018100020000000200001001F0000001F00000049
:101820001F0000001F0000001F0000001F0000003C
:101830001F0001001E0000001E0000001E0000002E
:101840001E0000004D383420582059205A204500F1
:101850006265640A002C2073797374656D2073745B
:101860006F7070656421204865617465725F4944DA
:101870003A200048656174696E67206661696C652D
:10188000640048656174696E67206661696C6564AF
:101890000048656174696E67206661696C65640003
:1018A00048656174696E67206661696C6564004AA9
:1018B00031300045002C014B00270151002201541A
:1018C000001D015D0018016300130169000E017223
:1018D0000009017B0004018400FF009000FA009CD5
:1018E00000F500A800F000B700EB00C600E600D548
:1018F00000E100EA00DC00FC00D7001401D2002C5B
:1019000001CD004701C8006801C3008901BE00ADD8
:1019100001B900D401B4000102AF003102AA00678E
:1019200002A500A002A000DF029B00240396006F26
:10193000039100C0038C001404870071048200D15D
:10194000047D0037057800A00573000C066E007B4F
:10195000066900ED0664005C075F00CB075A003A99
:10196000085500A308500006094B0063094600BA59
:101970000941000B0A3C00530A3700950A3200CE99
:101980000A2D00010B28002E0B2300520B1E0073A2
:101990000B19008B0B1400A30B0F00B50B0A00C42E
:1019A0000B0500D00B0000544845524D414C2052CD
:1019B000554E4157415900546865726D616C205213
:1019C000756E61776179004A3130004572723A2054
:1019D0004D415854454D5020424544004572723A9D
:1019E000204D415854454D50004D415854454D509F
:1019F00020747269676765726564004572723A2087
:101A00004D494E54454D5020424544004572723A6E
:101A1000204D494E54454D50004D494E54454D5072
:101A20002074726967676572656400000021002494
:101A30000027002A002D00300033000101000004BF
:101A40000107010A01000020002300260029002CC4
:101A5000002F00320000010000030106010901000F
:101A6000000A0B02090C0D0E080703040100000018
:101A70000000000000000000000000000000000066
:101A80000000000000000000000000121110000023
:101A90000000000000000000000000000000000046
:101AA00000000000004D45414E4C5F4C3A002020A4
:101AB000506C616E6E6572427566666572427974CD
:101AC00065733A20002046726565204D656D6F7222
:101AD000793A2000436F6D70696C65643A205365F4
:101AE0007020203120323032310A00207C204175B4
:101AF00074686F723A20284A6F6C6C792C20787861
:101B00007878787878782E434F2E290A0032303151
:101B1000362D31322D30362031323A303000204CE3
:101B200061737420557064617465643A2000312ECD
:101B3000312E302D5243380A0056312E332E325F6B
:101B40004F72670A0020536F667477617265205286
:101B5000657365740A00205761746368646F672059
:101B600052657365740A002042726F776E206F753C
:101B7000742052657365740A002045787465726E2E
:101B8000616C2052657365740A00506F77657255F9
:101B9000700A004A3132004A31370073746172743E
:101BA0000A004731205A2B32300047393100657224
:101BB000726F722077726974696E6720746F206625
:101BC000696C650A004A3132004A3033004A3138C4
:101BD00000446F6E6520736176696E672066696C7C
:101BE000652E0A004D3239005072696E746572209C
:101BF00068616C7465642E206B696C6C28292063A5
:101C0000616C6C6564210A0057726974696E6720A3
:101C1000746F2066696C653A20004A3231006F703B
:101C2000656E206661696C65642C2046696C653A56
:101C300020004A3231006F70656E206661696C6504
:101C4000642C2046696C653A20004A3230004669AF
:101C50006C652073656C65637465640A0020536964
:101C60007A653A200046696C65206F70656E656420
:101C70003A20004A3231006F70656E206661696CEF
:101C800065642C2046696C653A20002066696C65A5
:101C90003A20004E6F7720002220706F73002220C0
:101CA000706172656E743A2200535542524F55541A
:101CB000494E452043414C4C207461726765743A2B
:101CC0002200747279696E6720746F2063616C6C96
:101CD000207375622D67636F64652066696C657338
:101CE000207769746820746F6F206D616E79206C45
:101CF0006576656C732E204D4158206C6576656C59
:101D00002069733A004D3234004D32332025730080
:101D10006175746F25692E6700473930004731209F
:101D20005A2D323000656E7175657565696E672074
:101D3000220053442063617264206F6B0A006F704D
:101D4000656E526F6F74206661696C65640A007617
:101D50006F6C756D652E696E6974206661696C655E
:101D6000640A004572726F723A00534420696E69CA
:101D700074206661696C0A006563686F3A0001024D
:101D8000102020080810204010204080020102018D
:101D90000804020101020408102040808040201045
:101DA000080402018004020180402010080402019E
:101DB0000804020101020408102040800102040806
:101DC0001020408000002200250028002B002E005B
:101DD0003100340002010000050108010B01050576
:101DE0000505070508080808020202020A0A080891
:101DF00004040404010101010101010103030303BF
:101E000003030303040707070C0C0C0C0C0C0C0C4D
:101E10000202020206060606060606060B0B0B0B5E
:101E20000B0B0B0B020098AFF0AD11241FBECFEFD0
:101E3000D1E2DEBFCDBF00E00CBF14E0A0E0B2E015
:101E4000E8E9F6E801E00BBF02C007900D92AC3460
:101E5000B107D9F725E1ACE4B4E001C01D92A63981
:101E6000B207E1F71FE0C4E1DFE000E006C0219720
:101E70000109802FFE010E949DC2C331D10780E07D
:101E80000807A9F70E94CCB00C943AC30C94000048
:101E9000CF93DF93FC0126853785D901A05CBF4F26
:101EA0008D919C91119701968F739927E901CE5BD3
:101EB000DF4F4881598148175907D9F34D915C91FB
:101EC000240F351FD9016C93A685B785A05CBF4F41
:101ED00011969C938E93A689B7898C91978D21E05A
:101EE00030E001C0220F9A95EAF7822B8C9381E0B3
:101EF00081A30488F589E02D80818064808381E05E
:101F000090E0DF91CF910895FC0191A1992329F0F0
:101F1000A489B5898C9186FFF9CF11A20895DC01BF
:101F20001C968D919C91FC01E05CFF4F408151819A
:101F30003296208131814217530781F0208131810F
:101F4000820F931FDC018C91208131812F5F3F4FE5
:101F50002F7333273183208390E008958FEF9FEF15
:101F60000895FC0184859585FC01E05CFF4F40816C
:101F700051813296208131814217530741F02081EF
:101F80003181820F931FFC01808190E008958FEFD3
:101F90009FEF0895FC0124853585F901E05CFF4F32
:101FA000808191812E5B3F4FF90120813181805CDE
:101FB0009F4F821B930B60E470E00E9489C20895DA
:101FC000CF92DF92EF92FF92C0902902D0902A0226
:101FD000E0902B02F0902C02809147078823B1F10A
:101FE00020E030E0A901C701B6010E9408BB8823A8
:101FF00069F12BED3FE049E450E4C701B6010E94CE
:102000006EBB20E030E040E05FE30E946EBBA701C2
:1020100096010E946EBB20E030E040E05FE30E944A
:102020006EBB9B01AC0160E070E080E89FE30E9422
:1020300051C06093370270933802809339029093B5
:102040003A02FF90EF90DF90CF90089560E070E04B
:1020500080E89FE3EECFCF92DF92EF92FF92CF9393
:10206000DF93EC01C0901902D0901A02E0901B029D
:10207000F0901C02A7019601688179818A819B8179
:102080000E9408BB87FF04C0C882D982EA82FB8213
:10209000C0901D02D0901E02E0901F02F09020021E
:1020A000A70196016C817D818E819F810E9408BB72
:1020B00087FF04C0CC82DD82EE82FF82C0902102C5
:1020C000D0902202E0902302F0902402A701960112
:1020D000688579858A859B850E9408BB87FF04C037
:1020E000C886D986EA86FB86C0900D02D0900E0283
:1020F000E0900F02F0901002A701960168817981AB
:102100008A819B810E94B7C1181624F4C882D982A3
:10211000EA82FB82C0901102D0901202E09013027A
:10212000F0901402A70196016C817D818E819F81C0
:102130000E94B7C1181624F4CC82DD82EE82FF82A1
:10214000C0901502D0901602E0901702F09018028D
:10215000A7019601688579858A859B850E94B7C10C
:10216000181624F4C886D986EA86FB86DF91CF91BB
:10217000FF90EF90DF90CF90089580E1E4E3F7E0E7
:10218000A4EDBCE001900D928A95E1F70895CF92FD
:10219000DF92EF92FF920F931F93CF93DF93EC01A7
:1021A000CC0FDD1FCC0FDD1FFE01EF50F34F20E001
:1021B00030E0A90160817181828193810E9457BFC3
:1021C000FE01EB51F34F20813181428153810E9406
:1021D00057BF6B017C01FE01E85CF94F25913591F9
:1021E000459154918E01075E1D4F0E9457BFF80123
:1021F0006083718382839383FE01E45DF94F2591AF
:10220000359145915491C35FDD4FC701B6010E94DE
:1022100057BF688379838A839B83DF91CF911F9116
:102220000F91FF90EF90DF90CF9008958F929F9243
:10223000AF92BF92EF92FF920F931F93CF93DF93D2
:102240008C014A015B01EC01CC0FDD1FCC0FDD1FBF
:10225000CE018C52934F7C01CF50D34F28813981CE
:102260004A815B81CB01B4010E9456BFF7012081F6
:102270003181428153810E9457BFF701608371838E
:102280008283938388829982AA82BB82C801DF916C
:10229000CF911F910F91FF90EF90BF90AF909F90C3
:1022A0008F900C94C710FC012081318137FD2FC025
:1022B00080E2243631055CF0C90164E670E00E94DA
:1022C00089C2CB016AE070E00E9489C2805D809380
:1022D0004C0480E22A3031055CF0EAE0F0E0C9010C
:1022E000BF010E9489C2CB01BF010E9489C2805DEB
:1022F00080934D04C9016AE070E00E9489C2805D4C
:1023000080934E0410924F048CE494E0089531952C
:10231000219531098DE2DBCF089590E080E00895AA
:102320008FB7F8949091FC062091FB06291769F06D
:10233000E92FF0E0E558F94F208130E09F5F9F776B
:102340009093FC068FBFC90108952FEF3FEFFACF9E
:102350000E94EE79609327077093280780932907DE
:1023600090932A07089582E491E10E94840F0C94CF
:10237000A81180914D0690914E06A0914F06B09104
:1023800050068093040290930502A0930602B09336
:10239000070280914B0690914C0690930B0280931C
:1023A0000A020C94A8118091040290910502A09158
:1023B0000602B091070280934D0690934E06A093BB
:1023C0004F06B093500680910A0290910B029093B1
:1023D0004C0680934B0684E690E090930B0280932A
:1023E0000A020C94A8110F931F93CF93DF93EC0173
:1023F0000E94EE790E811F8128853985011511050E
:102400002105310579F52C85222339F1EA85215002
:102410002C8721E02E0F2A873D85231301C01A86C1
:10242000F0E03196EE0FFF1FEE0FFF1FEC0FFD1FC8
:1024300002851385248535850A831B832C833D8380
:10244000600F711F811D911D6E837F83888799871F
:102450008C819D81892B09F0469ADF91CF911F9144
:102460000F910895601B710B820B930B97FDF5CFB5
:1024700046981E821F8218861986EFCF682F880F14
:10248000770B2091E2053091E30540E6429FC001C1
:10249000439F900D1124855A9B4F0E94E8C29C01D6
:1024A00090935A048093590481E0232B09F480E02F
:1024B000089580916E0690916F064AE050E070E0BA
:1024C00060E001960E948BB9CB0108958F929F9294
:1024D000AF92BF92CF92EF92FF920F931F93CF9341
:1024E000DF93CDB7DEB72C970FB6F894DEBF0FBEE3
:1024F000CDBF4B015C01C0907106E4E3F7E080853D
:102500009185A285B385448155816681778100815B
:1025100011812281338109831A832B833C834D836C
:102520005E836F83788789879A87AB87BC87AE0184
:10253000475F5F4FBE016B5F7F4FCE0101960E94E8
:10254000569D8501740120E437E0AE01475F5F4F7F
:10255000BE016B5F7F4FCE0101960E9420902C96AA
:102560000FB6F894DEBF0FBECDBFDF91CF911F91A4
:102570000F91FF90EF90CF90BF90AF909F908F9072
:1025800008952F923F924F925F926F927F928F9217
:102590009F92AF92BF92CF92DF92EF92FF920F93F2
:1025A0001F93CF93DF93CDB7DEB7C854D1090FB6D1
:1025B000F894DEBF0FBECDBF29966CAF7DAF8EAF56
:1025C0009FAF29975A8F498F3C8F2B8F8090D40CC7
:1025D0009090D50CA090D60CB090D70C8091F10CB7
:1025E0009091F20CA091F30CB091F40C8D8F9E8F12
:1025F000AF8FB8A38091E50C9091E60CA091E70C09
:10260000B091E80C89A39AA3ABA3BCA3A091520CF0
:10261000B091530CBEA7ADA7BD01BB0F880B990BA2
:102620000E940FBB6FA778AB89AB9AAB2091560C79
:102630003091570C3CAB2BABB901330F880B990B86
:102640000E940FBB6DAB7EAB8FAB98AF4090D80CA8
:102650005090D90C6090DA0C7090DB0C8091F50CE6
:102660009091F60CA091F70CB091F80C8DA39EA35D
:10267000AFA3B8A78091E90C9091EA0CA091EB0C64
:10268000B091EC0C89A79AA7ABA7BCA7A091540C5A
:10269000B091550CBAAFA9AFBD01BB0F880B990B18
:1026A0000E940FBB6BAF7CAF8DAF9EAF2091580CDB
:1026B0003091590C21963FAF2EAF2197B901330FBE
:1026C000880B990B0E940FBB25966CAF7DAF8EAF28
:1026D0009FAF25978091340790913507A0913607D9
:1026E000B0913707898B9A8BAB8BBC8B8091380765
:1026F00090913907A0913A07B0913B078D8B9E8B43
:10270000AF8BB88F2D8D3E8D4F8D58A1C501B40173
:102710000E9456BF29A13AA14BA15CA10E9456BFBD
:102720002FA538A949A95AA90E9456BF2DA93EA98B
:102730004FA958AD0E9451C00E94C3C07B0194E0D4
:10274000E916F1041CF093E0E92EF12CF7FE02C02B
:10275000F12CE12C2DA13EA14FA158A5C301B2013E
:102760000E9456BF29A53AA54BA55CA50E9456BF5D
:102770002BAD3CAD4DAD5EAD0E9456BF25962CAD48
:102780003DAD4EAD5FAD25970E9451C00E94C3C0C4
:102790001B01643071051CF083E0282E312C37FEBC
:1027A00002C0312C212C2D8D3E8D4F8D58A1698971
:1027B0007A898B899C890E9456BF29A13AA14BA195
:1027C0005CA10E9456BF2FA538A949A95AA90E9409
:1027D00056BF2DA93EA94FA958AD0E9451C00E94D5
:1027E000C3C08B016430710514F003E010E017FFE3
:1027F00002C010E000E02DA13EA14FA158A56D89B7
:102800007E898F89988D0E9456BF29A53AA54BA530
:102810005CA50E9456BF2BAD3CAD4DAD5EAD0E9498
:1028200056BF25962CAD3DAD4EAD5FAD25970E94B0
:1028300051C00E94C3C06430710514F063E070E0C1
:1028400077FF02C070E060E0E016F10639F562152E
:10285000730509F0AFC029966CAD7DAD8EAD9FAD0F
:1028600029970E946612C85BDF4F0FB6F894DEBF4F
:102870000FBECDBFDF91CF911F910F91FF90EF90D1
:10288000DF90CF90BF90AF909F908F907F906F9090
:102890005F904F903F902F900C94BD100E151F0528
:1028A0000CF088C03E2D621573050CF473C1262F01
:1028B000E016F10609F088C06215730561F2822FF7
:1028C000022E000C990B01E010E002C0000F111F56
:1028D0002A95E2F72B8D3C8D20233123232B09F4FD
:1028E000BACF20E1E4E3F7E0DE01119601900D920A
:1028F0002A95E1F721962EAD3FAD2197289FB00193
:10290000299F700D389F700D112489AD9AAD680F05
:10291000791F072E000C880B990B0E940FBB2DA16D
:102920003EA14FA158A50E9457BF29A53AA54BA586
:102930005CA50E9457BF6093380770933907809356
:102940003A0790933B07A30192010E9456BF6B0187
:102950007C01A30192016D897E898F89988D0E94E7
:1029600056BF9B01AC01C701B6010E9451C06B016B
:102970007C01A501940169897A898B899C890E94CF
:1029800056BFA70196010E946EBBA50194010E944B
:1029900057BF609334077093350780933607909341
:1029A000370700951095AB8DBC8DA023B123BC8F4C
:1029B000AB8F82C0302F621573050CF078CF222DBB
:1029C000E016F10609F47BCF832F032E000C990B40
:1029D00001E010E002C0000F111F3A95E2F7498DA7
:1029E0005A8D40235123452B09F466CF20E1E4E3BF
:1029F000F7E0DE01119601900D922A95E1F72BA9DF
:102A00003CA9289FB001299F700D389F700D11249B
:102A10008DA59EA5680F791F072E000C880B990BBA
:102A20000E940FBB2D8D3E8D4F8D58A10E9457BF28
:102A300029A13AA14BA15CA10E9457BF6093340722
:102A4000709335078093360790933707A50194015B
:102A50000E9456BF6B017C01A501940169897A89A6
:102A60008B899C890E9456BF9B01AC01C701B601AE
:102A70000E9451C06B017C01A30192016D897E8986
:102A80008F89988D0E9456BFA70196010E946EBB48
:102A9000A30192010E9457BF6093380770933907D2
:102AA00080933A0790933B0700951095A98DBA8DB6
:102AB000A023B123BA8FA98F8090DC0C9090DD0CFD
:102AC000A090DE0CB090DF0CA501940160913C0752
:102AD00070913D0780913E0790913F070E9456BF3D
:102AE000A70196010E946EBBA50194010E9457BFE9
:102AF00060933C0770933D0780933E0790933F0798
:102B00008090E00C9090E10CA090E20CB090E30C6F
:102B1000A50194016091400770914107809142079F
:102B2000909143070E9456BFA70196010E946EBB79
:102B3000A50194010E9457BF60934007709341071D
:102B400080934207909343072B8D3C8D498D5A8D7E
:102B500029966CAD7DAD8EAD9FAD29970E94C112B7
:102B600089899A89AB89BC8989839A83AB83BC8321
:102B70008D899E89AF89B88D8D839E83AF83B887F9
:102B800080E1FE013196A4E3B7E001900D928A95B1
:102B9000E1F71CCD222D18CFCF92EF92FF920F9329
:102BA0001F93CF93DF93CDB7DEB72C970FB6F89472
:102BB000DEBF0FBECDBFC0907106E4EDFCE08085A6
:102BC0009185A285B3854481558166817781008195
:102BD00011812281338109831A832B833C834D83A6
:102BE0005E836F83788789879A87AB87BC87AE01BE
:102BF000475F5F4FBE016B5F7F4FCE0101960E9422
:102C0000569DE0900402F09005020091060210919A
:102C1000070220EE3CE0AE01475F5F4FBE016B5FF5
:102C20007F4FCE0101960E9420902C960FB6F8940B
:102C3000DEBF0FBECDBFDF91CF911F910F91FF90EF
:102C4000EF90CF90089580916E0690916F064AE0C4
:102C500050E070E060E001960E945DB897FD1EC0F4
:102C600080916E0690916F064AE050E070E060E05F
:102C700001960E945DB86F3F71058105910509F0CD
:102C80007CF480916E0690916F064AE050E070E00F
:102C900060E001960E945DB8862F089580E0089557
:102CA0008FEF0895E0916E06F0916F068181DF014C
:102CB000129621E030E0803221F42F5F3F4F8D915A
:102CC000FACF8D3211F08B3231F42F5F3F4FDF019D
:102CD000A20FB31F8C918E3219F4E20FF31F818182
:102CE000805391E08A3030F40E94231691E08111E4
:102CF00001C090E0892F089580916E0690916F0633
:102D00004AE050E070E060E001960E945DB8CB01BF
:102D1000089580916E0690916F064AE050E070E051
:102D200060E001960C945DB88091590490915A042A
:102D300070E060E001960C94FFB680910212882347
:102D400079F01092B1101092B01081E0809383025C
:102D50006AE070E080E090E00E94BB790E94E3AA04
:102D60008091B0109091B11008950E94028F0E943E
:102D7000379E0E94E00F90E080E00E94C71081E043
:102D800090E00E94C71082E090E00C94C710EF9290
:102D9000FF920F931F93CF938C017B01C42FF801F7
:102DA000808191810E94D5BEF70181937F0120919E
:102DB000440730914507820F932F911D909345074B
:102DC00080934407F80180819181019691838083EB
:102DD000C15029F7CF911F910F91FF90EF90089567
:102DE000FC0120E03EE2DB014D91BD01403249F0A3
:102DF000283011F430833196DB0111974C914083D8
:102E000031962F5F2B3079F71082089561E0FC0135
:102E100080810C94EC738EBD0DB407FEFDCF089538
:102E20008FEF8EBD0DB407FEFDCF8EB508958F9246
:102E30009F92AF92BF92EF92FF920F931F93CF9307
:102E40007C01C62F49015A01FC019281892F806AB9
:102E500086958CBD90FD03C081E0963009F480E03A
:102E60008DBD60E0F70180810E94EC738CE291E0FF
:102E70000E94617A8C2F80640E940B1708E110E099
:102E8000D501C401002E04C0B695A79597958795E6
:102E90000A94D2F70E940B1708501109083FFFEF60
:102EA0001F0771F785E9CC2321F087E8C83009F0C6
:102EB0008FEF0E940B17CC3011F40E941017C0E066
:102EC0000E941017F701838387FF04C0CF3F11F0E2
:102ED000CF5FF6CFCF911F910F91FF90EF90BF90F2
:102EE000AF909F908F9008950F931F93CF93DF9390
:102EF000EC0189018C81833039F089E0440F551F42
:102F0000661F771F8A95D1F79A01AB0168E1CE0160
:102F10000E941717882319F086E089833AC08EEF44
:102F20008EBDF801C8019E5F0DB407FEFDCF208164
:102F30002EBD0DB407FEFDCF21812EBD3296E817C0
:102F4000F90791F70DB407FEFDCF8FEF0E940B1725
:102F50008FEF0E940B170E9410178B838F718530A3
:102F600099F488E592E00E94617A182F87E1112395
:102F7000A1F220E030E0A9016DE0CE010E94171718
:102F8000882361F086E1C9CF83E18983CE010E9465
:102F90000617CE010E94061710E007C00E94101706
:102FA0008111F0CFCE010E940617812FDF91CF91C2
:102FB0001F910F910895CF938091AB10C1E08823AA
:102FC000A1F04091A3105091A4106091A5107091B0
:102FD000A61023EA3EE08091AC109091AD100E94C3
:102FE0007417C82F811104C0C0E08C2FCF910895B1
:102FF0004091A7105091A8106091A9107091AA104B
:10300000411551056105710591F023EA3EE080917B
:10301000AC109091AD100E947417882329F3109280
:10302000A7101092A8101092A9101092AA10109236
:10303000AB10DBCFEF92FF920F931F93CF93DF93F1
:10304000EC0179018C81833039F089E0440F551F00
:10305000661F771F8A95D1F79A01AB0161E1CE0116
:103060000E941717882339F084E08983CE010E94DB
:10307000061780E03BC00E94EE798B010E9410177A
:103080008B838F3F81F40E94EE79601B710B6D3250
:103090007140A0F381E18983CE010E9406178FEF72
:1030A0000E940B17E6CF8E3F11F08FE0F4CF8FEF29
:1030B0008EBDF701D701A150BE4F0DB407FEFDCF65
:1030C0009EB591938EBDAE17BF07B9F70DB407FE3D
:1030D000FDCF8EB58C930E9410170E941017CE0161
:1030E0000E9406178FEF0E940B1781E0DF91CF91AE
:1030F0001F910F91FF90EF900895CF92DF92EF9282
:10310000FF92CF936B017C01C42F8091A31090910B
:10311000A410A091A510B091A6108C159D05AE0528
:10312000BF0501F10E94DB17811108C0C0E08C2FA0
:10313000CF91FF90EF90DF90CF90089523EA3EE08B
:10314000B701A6018091AC109091AD100E941A18A1
:10315000882361F3C092A310D092A410E092A5102E
:10316000F092A610CC2321F081E08093AB10DFCF4A
:10317000C1E0DDCF4F925F926F927F928F929F92CC
:10318000AF92BF92CF92DF92EF92FF920F931F9375
:10319000CF93DF93EC01423051056105710590F446
:1031A00080E0DF91CF911F910F91FF90EF90DF9022
:1031B000CF90BF90AF909F908F907F906F905F90D7
:1031C0004F90089589859A85AB85BC850196A11D90
:1031D000B11D84179507A607B70710F38F898031B3
:1031E000C9F5852E962EA72EBB248B899C89AD8987
:1031F000BE89880E991EAA1EBB1E280139016A01CC
:103200007B0141E0C501B4010E947D18882341F291
:103210009F89903181F5DD24EE24FF24F601EE0F25
:10322000FF1FED55F14F118300839A89923008F406
:10323000B8CF4D815E816F817885840E951EA61E64
:10324000B71E8092A7109092A810A092A910B092D9
:10325000AA10A7CF803209F0A3CF8B899C89AD89B2
:10326000BE894A015B01E7E0B694A79497948794DE
:10327000EA95D1F7BECFE894C7F8DD24EE24FF2409
:10328000F601EE0FFF1FEE0FFF1FED55F14F4082CD
:10329000518262827382C9CFCF92DF92EF92FF9206
:1032A0000F931F93CF93DF93FC0181859285A385B4
:1032B000B4850196A11DB11D84179507A607B70710
:1032C00050F480E0DF91CF911F910F91FF90EF902C
:1032D000DF90CF90089587898031A9F5BB27A72F6C
:1032E000962F852FC388D488E588F6888C0D9D1D80
:1032F000AE1DBF1DE9016A017B018F014091A31042
:103300005091A4106091A5107091A6108417950794
:10331000A607B70749F5F8018789803169F5B70134
:10332000A601552766277727440F551F4D55514F46
:10333000FA0180819181B0E0A0E088839983AA831B
:10334000BB8381E0BFCF803209F0BBCFC388D48874
:10335000E588F688DB01CA01C7E0B695A795979581
:103360008795CA95D1F7C2CF40E0BC01CD010E943C
:103370007D188111D0CFA5CFB701A6014F77552772
:1033800066277727440F551F440F551F4D55514F42
:10339000FA0180819181A281B381BF70CECF4F921B
:1033A0005F926F927F92AF92BF92CF92DF92EF9235
:1033B000FF920F931F93CF93DF9300D01F92CDB74F
:1033C000DEB78C0149835A836B837C835901C12CFE
:1033D000D12C7601412C82E0582E612C712C498130
:1033E0005A816B817C819E012F5F3F4FC8010E94F3
:1033F0004C19882319F1F8018585A301920104C0B5
:10340000220F331F441F551F8A95D2F7DA01C901D5
:10341000C80ED91EEA1EFB1E49815A816B817C8130
:1034200087898031F1F481E0483F5F4F6105710584
:10343000B0F2F501C082D182E282F3820F900F9048
:103440000F900F90DF91CF911F910F91FF90EF9010
:10345000DF90CF90BF90AF907F906F905F904F9034
:10346000089581E0483F5F4F6F4F7F4008F4B7CF2A
:10347000E0CF0F931F93CF93DF93FC01238122238F
:1034800031F080E0DF91CF911F910F9108958B0172
:10349000EC01FB018789803139F582E08B831D8A3D
:1034A0001E8A1F8A188E808D918DB0E0A0E025E0E5
:1034B000880F991FAA1FBB1F2A95D1F7898B9A8B5A
:1034C000AB8BBC8B1A8F098F81E089831C821D8294
:1034D0001E821F82188619861A861B861C861D86E8
:1034E0001E861F86188ACECF803259F683E08B83E2
:1034F000428D538D648D758D4D8B5E8B6F8B788F68
:103500009E012F5E3F4FC8010E94CF198111DACF73
:10351000B8CF8F929F92AF92BF92CF92DF92EF92ED
:10352000FF920F931F93CF93DF93EC018B81811157
:103530000EC080E0DF91CF911F910F91FF90EF902F
:10354000DF90CF90BF90AF909F908F9008950989A2
:103550001A892B893C89041715072607370748F372
:103560004A015B01823031F488869986AA86BB863F
:1035700081E0E0CF81149104A104B10449F41C82DC
:103580001D821E821F82188619861A861B86F0CF1E
:10359000088519852A853B85E98DFA8D858590E01A
:1035A0000996B901A8014150510961097109082E14
:1035B00004C076956795579547950A94D2F775019B
:1035C0006401E1E0CE1AD108E108F10804C0F694E4
:1035D000E794D794C7948A95D2F7C416D506E60621
:1035E000F70620F0012B022B032B11F58D899E8904
:1035F000AF89B88D8C839D83AE83BF838E010C5FB2
:103600001F4FC114D104E104F10409F4ADCF4C8182
:103610005D816E817F819801898D9A8D0E944C1900
:1036200091E0C91AD108E108F1088111EACF81CFF0
:10363000C41AD50AE60AF70AE1CF40E050E0BA0121
:103640000C94891A3F924F925F926F927F928F9261
:103650009F92AF92BF92CF92DF92EF92FF920F9321
:103660001F93CF93DF93CDB7DEB72C970FB6F894A7
:10367000DEBF0FBECDBF5C01DC0159968D909C90E2
:10368000F40181859285A385B4859C01AD012F5FEE
:103690003F4F4F4F5F4F29873A874B875C87D50154
:1036A00014964D905D906D907C9017974114510445
:1036B0006104710409F459C0BFEF4B1A5B0A6B0A2D
:1036C0007B0A312C730162011D821E821F821886C3
:1036D000F40181859285A385B4852D813E814F813A
:1036E0005885281739074A075B0708F056C08985AF
:1036F0009A85AB85BC858C159D05AE05BF0550F43C
:1037000082E0C82ED12CE12CF12C92E0492E512CD4
:10371000612C712C9E012F5F3F4FB701A601C401A0
:103720000E944C198823C9F189819A81AB81BC819F
:10373000892B8A2B8B2B01F1260137019FEF491A28
:10374000590A690A790A2D813E814F8158852F5F78
:103750003F4F4F4F5F4F2D833E834F8358873FEF3F
:10376000C31AD30AE30AF30AB3CF408051806280C0
:10377000738033243394A6CFC414D504E604F7042D
:1037800011F70FEF1FEF2FEF3FE0B701A601C401C4
:103790000E94BA18782E81111AC0712C872D2C9690
:1037A0000FB6F894DEBF0FBECDBFDF91CF911F9152
:1037B0000F91FF90EF90DF90CF90BF90AF909F90D0
:1037C0008F907F906F905F904F903F900895F5019C
:1037D00044815581668177814115510561057105E7
:1037E00039F097018601C4010E94BA188823A9F212
:1037F000D5011496CD92DD92ED92FC92179733206D
:1038000051F0D701C6010196A11DB11DF4018083BD
:103810009183A283B383F50185899689A789B08DA9
:10382000892B8A2B8B2B09F0B9CFC58AD68AE78AD8
:10383000F08E818180688183B1CFCF93DF93EC01DB
:10384000462F41706C857D858E859F850E947D18F1
:10385000882351F0888920E2829FC00111248D5570
:10386000914FDF91CF91089590E080E0FACFCF9310
:10387000DF93EC018B81882349F1898187FF22C086
:1038800061E0CE010E941D1CFC01892BF9F08081B2
:10389000853EE1F08B81823040F489899A89AB8939
:1038A000BC89848F958FA68FB78F8D899E89938FC2
:1038B000828F8D899E89AF89B88DB58BA48B8981C4
:1038C0008F778983DF91CF910C94DB1781E0888318
:1038D00080E0DF91CF9108952F923F924F925F92B7
:1038E0006F927F928F929F92AF92BF92CF92DF9210
:1038F000EF92FF920F931F93CF93DF9300D01F920D
:10390000CDB7DEB78C014B011A01DC0113968C9107
:103910001397813009F0CAC011968C9181FFC6C0FF
:1039200082FDB0C06101D80118964D915D916D91F5
:103930007C911B97C114D10409F41AC159968D9139
:103940009C915A97FC0174802FEF270D2A013B01AF
:1039500039E076946794579447943A95D1F7722E4C
:1039600074207A01F1E0FF22711020C0E114F1040B
:10397000E9F414964D915D916D917C9117974115E5
:1039800051056105710509F097C055968D919D917E
:103990000D90BC91A02D0097A105B10509F0A5C01F
:1039A000C8010E94221B882309F480C080E092E0B5
:1039B0008E199F0956018C159D0508F45C01D801EC
:1039C00059964D915C915A9714968D919D910D90B9
:1039D000BC91A02D0297A109B109FA01258504C067
:1039E000880F991FAA1FBB1F2A95D2F746855785B6
:1039F00060897189840F951FA61FB71F9C01AD01B7
:103A0000270D311D411D511D29013A01A11432E03C
:103A1000B30609F078C08091A3109091A410A091F2
:103A2000A510B091A610481659066A067B0669F4DF
:103A30001092AB108FEF9FEFDC018093A310909357
:103A4000A410A093A510B093A6109401B301A201F5
:103A50008091AC109091AD100E947417882331F1C1
:103A6000F80180859185A285B3858A0D9B1DA11DD6
:103A7000B11D80879187A287B3878A0C9B1CCA18C7
:103A8000DB0851CFF80141895289638974898085A7
:103A90009185A285B385481759076A077B0709F402
:103AA00041CFC8010E94891A81113CCF81E0D80121
:103AB0008C938FEF9FEF72C09E012F5F3F4F0E944C
:103AC0004C19882399F389819A81AB81BC81F801D3
:103AD000218D328DF9012789203169F4883FFFEF6C
:103AE0009F07A105B10508F05BCFF801848395839A
:103AF000A683B7835BCF883F2FEF9207A2072FE003
:103B0000B20798F34DCFE114F10451F5D80118969E
:103B10004D915D916D917C911B9751968D919D91E9
:103B20000D90BC91A02D481759076A077B07C0F07C
:103B30000E94DB17882309F4B9CF81E08093AB1092
:103B40004092A3105092A4106092A5107092A610FB
:103B5000A501B401C7018D55914F0E94C1C280CF0C
:103B600041E0C301B2010E947D188111F1CF9ECFC7
:103B7000F80181899289A389B48984179507A607DA
:103B8000B70738F48181418B528B638B748B8068CB
:103B90008183F801818183FD18C0C1010F900F90CE
:103BA0000F900F90DF91CF911F910F91FF90EF90A9
:103BB000DF90CF90BF90AF909F908F907F906F904D
:103BC0005F904F903F902F900895C8010E94371C3E
:103BD0008111E3CF6BCFCF93DF931F92CDB7DEB7C9
:103BE000698341E050E0BE016F5F7F4F04960E9401
:103BF0006C1C0F90DF91CF910895CF93DF93EC0170
:103C00000E94371C1B82DF91CF910895FC01238114
:103C100021110C94FD1D0895CF93DF93EB01FC015E
:103C20002381211104C080E0DF91CF9108952250BB
:103C3000223028F48FE28883198281E0F5CF60E09A
:103C40000E941D1C009779F3DC0160E080E09EE299
:103C50002D91203299F0883031F49E01260F311DCC
:103C6000F90190836F5F9E01260F311DAD01415018
:103C70005109FA014081F90140836F5F8F5F8B30FA
:103C800039F7FE01E60FF11D1082D7CF2F923F9238
:103C90004F925F926F927F928F929F92AF92BF925C
:103CA000CF92DF92EF92FF920F931F93CF93DF9308
:103CB00000D01F92CDB7DEB79C838B834B017A0176
:103CC000DC0113968C91811119C08FEF9FEF0F903B
:103CD0000F900F900F90DF91CF911F910F91FF9058
:103CE000EF90DF90CF90BF90AF909F908F907F909C
:103CF0006F905F904F903F902F900895EB81FC81E3
:103D0000818180FFE2CF018912892389348940852E
:103D1000518562857385C701B0E0A0E028013901B3
:103D2000441A550A660A770A481659066A067B0637
:103D300018F47801E41AF50A67018B819C810496D6
:103D40009A838983612C32E0732EC114D10409F463
:103D5000B7C0AB81BC8118964D915D916D917C91FE
:103D60001B975A01B1E0BB22EB81FC81818D928DC2
:103D70001A012B0129E056944794379427942A95E9
:103D8000D1F72381223091F5DC015A966D917D9116
:103D90008D919C915D97620D731D841D951D83010E
:103DA0000A191B09C016D10608F486010115B2E0F4
:103DB0001B0771F42091A3103091A4104091A5101D
:103DC0005091A610621773078407950709F059C030
:103DD00040E00E947D18882309F477CFB5016D5526
:103DE000714FA801C4010E94C1C257C0FC011481D7
:103DF00011501221A114B10481F411110EC0452BF0
:103E0000462B472B79F5EB81FC8185899689A7891B
:103E1000B08D84839583A683B783AB81BC8159968B
:103E2000ED91FC915A9714966D917D918D919C9195
:103E300017976250710981099109258504C0660FA1
:103E4000771F881F991F2A95D2F7268537854089C5
:103E50005189620F731F841F951F610F711D811D92
:103E6000911D9DCFAB81BC8114964D915D916D915B
:103E70007C91179729813A810E944C198111CDCFED
:103E800024CF9401AB01BC018091AC109091AD1096
:103E90000E941A18882309F418CF800E911EEB8116
:103EA000FC8180859185A285B385800F911FA11D1E
:103EB000B11D80879187A287B387C01AD10A45CFE9
:103EC000C70105CFDF92EF92FF920F931F93CF931D
:103ED000DF938C01EB017A018DE0D82E40E250E0B7
:103EE000BE01C8010E94461E8032910571F021E09A
:103EF000892B09F420E0822F8195DF91CF911F91CA
:103F00000F91FF90EF90DF90089528812223C1F157
:103F1000253E21F32E3211F3E114F10439F13B85F2
:103F20003F733F3019F54A8D5B8D452BF9F42F71A6
:103F30003FEF320F3230D0F42150330BD29EC0010C
:103F4000D39E900D1124D701A80FB91FFE0120E0C8
:103F5000AD01253078F431813D932F5F32962D30BD
:103F6000C1F7288126FF02C0FA0115862B8523FDA3
:103F7000B5CFC3CF2B3010F43481EECF3681ECCFE8
:103F800080E0BBCF4F925F926F927F92AF92BF92D1
:103F9000CF92DF92EF92FF920F931F93CF93DF9315
:103FA0001F92CDB7DEB78C017B015A01C22EDB0117
:103FB00059968D919C91F801928F818FCB010E942F
:103FC0001D1B712CF70180859185A285B3854189E0
:103FD00052896389748984179507A607B70708F083
:103FE00052C055E0B695A795979587955A95D1F704
:103FF000F82FFF70DF2ED70113968C91823010F4CA
:1040000080E0DBC041E050E0BE016F5F7F4FC70141
:104010000E94461E0197A1F7F70180859185A28530
:10402000B3854F96A11DB11D80879187A287B38765
:10403000F0E2DF9EB00111246D55714F61157105DD
:10404000F9F2DB018C91882341F0853E09F04CC0E8
:10405000772029F077247394B5CF71100EC080912A
:10406000A3109091A410A091A510B091A610F801F2
:1040700084879587A687B787D08ADB018C918111C9
:10408000E9CF772473948C2D8274823409F0B8CFF1
:10409000772009F4A2C0F801D08861E0C8010E942D
:1040A0001D1C009709F4ACCF20E2DC011D922A957B
:1040B000E9F72BE0F501DC0101900D922A95E1F77B
:1040C00021E238E2FC01318B208B40E058E0578739
:1040D0004687338B228B318F208F578B468B0E94E4
:1040E000DB17811109C08CCF4BE050E0C5010E9465
:1040F000B4C2892B09F066CFF0E2DF9ED001112413
:104100009D012D55314FF9018385817121F08C2D51
:10411000827109F0FCC0F801818D928D4091A3104D
:104120005091A4106091A5107091A61044875587F6
:1041300066877787D08AFD01ED55F14F4488558811
:10414000712C612C320155244424D80155964D928E
:104150005D926D927C925897428D538D70E060E035
:10416000442955296629772955964D935D936D937A
:104170007C935897D9011B962C91287109F0B9C0EE
:10418000848D958DA68DB78DF801818B928BA38B35
:10419000B48B81E083838C2D8F70F801818314822E
:1041A000158216821782108611861286138681E088
:1041B000C4FE03C0C8010E9423700F90DF91CF910D
:1041C0001F910F91FF90EF90DF90CF90BF90AF9035
:1041D0007F906F905F904F900895D70113968C91C8
:1041E0001397823009F40CCF51968D919D910D90CB
:1041F000BC91A02D803E9F4FAF41B10508F000CF8C
:10420000C7010E94221B882309F4FACE0E94DB1703
:10421000882309F4F5CED7015996ED91FC915A9770
:1042200014964D905D906D907C901797B2E04B1A6C
:10423000510861087108858504C0440C551C661C32
:10424000771C8A95D2F786859785A089B189480E13
:10425000591E6A1E7B1E81E08093AB104092A31012
:104260005092A4106092A5107092A610E3EAFEE0AE
:1042700080E092E0DF019C011D9221503040E1F787
:10428000DD24D394D7015996ED91FC918481D81601
:1042900098F423EA3EE0B301A2014D0D511D611DCA
:1042A000711D8091AC109091AD100E9474178823FD
:1042B00009F4A6CED394E6CF258580E092E0A0E075
:1042C000B0E004C0880F991FAA1FBB1F2A95D2F720
:1042D000F7014189528963897489840F951FA61F4C
:1042E000B71F818B928BA38BB48B83EA9EE0D12C7A
:1042F000DBCE203161F498012F5E3F4F0E94CF1931
:10430000882329F084E0D80113968C9344CFD801F8
:1043100013961C9275CE2F923F924F925F926F929E
:104320007F928F929F92AF92BF92CF92DF92EF9245
:10433000FF920F931F93CF93DF93CDB7DEB7C25495
:10434000D1090FB6F894DEBF0FBECDBF4C015B01A3
:104350006A01322E19821C821C8E1F8E672B21F55A
:1043600010E0CE014C960E94061ECE0101960E94DE
:10437000061E812FCE5BDF4F0FB6F894DEBF0FBE57
:10438000CDBFDF91CF911F910F91FF90EF90DF9004
:10439000CF90BF90AF909F908F907F906F905F90E5
:1043A0004F903F902F900895FC0183818111D8CFC9
:1043B000FA0180818F32C1F4CA016C010196F601C5
:1043C00020812F32D1F3F50183818250823060F059
:1043D000618D728DCE014C960E94391A8E01045E59
:1043E0001F4F811102C0BCCF8501CE0101967C0117
:1043F0003C012E019CE1490E511C2396EFAE239700
:104400002F2CFE01F796CF010B96AF0120E22193EE
:10441000E817F907D9F7960190E067E0D9018D9187
:10442000882351F18F3241F1282F8E3239F46A30CE
:1044300009F496CF98E06AE09D01F0CFE3E4FCE058
:104440003491332321F031968313FACF89CF691742
:1044500008F486CF813208F483CF8F3709F480CFF8
:104460003FE9380F3A3110F420EE280FFA01E90F36
:10447000F11D20839F5FE0CF8FA9803209F470CFB8
:104480006901F90180812F5F3F4F8F32C9F3882383
:10449000D9F021E0B801C7010E94C21F882309F4A6
:1044A0005FCF0A151B0519F0C8010E94FD1D942D50
:1044B000852D6E147F0421F023969FAD2397822DC6
:1044C0008701E92EF82E9DCF232DB801C4010E944B
:1044D000C21F182F46CF1F920F920FB60F921124B2
:1044E0000BB60F922F933F938F939F93EF93FF936E
:1044F0002091FA103091FB108091FC109091FD10EA
:104500002817390791F4809131018F7D8093310113
:10451000FF91EF919F918F913F912F910F900BBE43
:104520000F900FBE0F901F901895E091FC10F09126
:10453000FD10E654FF4E20818091FC109091FD10FB
:1045400001968F7399279093FD108093FC10209310
:104550003601DECF1F920F920FB60F9211240BB6C9
:104560000F922F934F935F938F939F93EF93FF93AC
:104570008091300182FD29C02091360180913E1149
:1045800090913F11409140115091411101968F73CC
:1045900099274817590759F0E0913E11F0913F11C2
:1045A000E250FF4E208390933F1180933E11FF9184
:1045B000EF919F918F915F914F912F910F900BBE33
:1045C0000F900FBE0F901F90189580913601EFCF7E
:1045D00021E833E0FC013183208304960C94061E0D
:1045E0005F9A8A9A479A9FB7F894E8E0F1E0808151
:1045F000816080839FBF479A129A0895CF93DF937B
:10460000EC0190E080E00E9469856093010770935F
:104610000207809303079093040781E090E00E94D3
:104620006985609305077093060780930707909349
:10463000080782E090E00E94698560930907709303
:104640000A0780930B0790930C0781E097E00E9484
:10465000B09CC436D10561F48CE0E1E0F7E0A4ED54
:10466000BCE001900D928A95E1F7DF91CF9108951A
:10467000CC0FDD1FCC0FDD1FFE01EC52F34FCF5FDF
:10468000D84F88819981AA81BB8180839183A2833D
:10469000B383EBCF90915407981761F08093540740
:1046A000811104C082E090E00C94FE2284ED9CE035
:1046B0000C94B09C08952F923F924F925F926F920C
:1046C0007F928F929F92AF92BF92CF92DF92EF92A2
:1046D000FF920F931F93CF93DF9300D000D0CDB7FD
:1046E000DEB79A8389832091F10C3091F20C4091CE
:1046F000F30C5091F40CFC016081718182819381F3
:104700000E9456BF2091E50C3091E60C4091E70CD9
:104710005091E80C0E9456BF6B017C016091520CD5
:104720007091530C072E000C880B990B0E940FBB45
:104730009B01AC01C701B6010E9456BF6B017C0111
:104740006091560C7091570C072E000C880B990B3A
:104750000E940FBB9B01AC01C701B6010E9451C072
:104760004B015C012091F50C3091F60C4091F70C57
:104770005091F80CE981FA81648175818681978175
:104780000E9456BF2091E90C3091EA0C4091EB0C4D
:104790005091EC0C0E9456BF6B017C016091540C4F
:1047A0007091550C072E000C880B990B0E940FBBC3
:1047B0009B01AC01C701B6010E9456BF6B017C0191
:1047C0006091580C7091590C072E000C880B990BB6
:1047D0000E940FBB9B01AC01C701B6010E9451C0F2
:1047E0006B017C01C501B4010E94F9C02B013C01A1
:1047F00020E030E0A9010E9408BB10E000E087FD46
:1048000011C020E030E040E850E4C301B2010E9452
:10481000B7C104E010E018162CF0C301B2010E94E9
:10482000C3C08B01C701B6010E94F9C02B013C0136
:1048300020E030E0A9010E9408BB87FDE8C020E02D
:1048400030E040E850E4C301B2010E94B7C118163D
:104850000CF4E0C0C301B2010E94C3C07E836D832B
:10486000C8010430110514F083E090E0AC014F5F03
:104870005F4F5A8349838D819E818430910514F066
:1048800083E090E01C015FEF251A350AB801012E84
:10489000000C880B990B0E940FBB9B01AC01C5015A
:1048A000B4010E9456BF4B015C01ED81FE81BF0146
:1048B000FF0F880B990B0E940FBB9B01AC01C70136
:1048C000B6010E9456BF6B017C0120E030E0A901D7
:1048D000C501B4010E9408BB87FF03C0812C912C45
:1048E000540120E030E0A901C701B6010E9408BBD5
:1048F00087FF03C0C12CD12C760125E0209FC00189
:10490000219F900D1124ED81FE81E80FF91FEE0F1C
:10491000FF1FEE0FFF1FE65AF34F40805180628069
:10492000738049815A81249F8001259F100D112495
:10493000ED81FE81E00FF11FEE0FFF1FEE0FFF1F55
:10494000E65AF34F208131814281538129833A8392
:104950004B835C83FC01E20DF31DEE0FFF1FEE0F96
:10496000FF1FE65AF34FA30192016081718182819A
:1049700093810E9456BFA70196010E946EBBA301BE
:1049800092010E9457BF2B013C01F801E20DF31D7B
:10499000EE0FFF1FEE0FFF1FE65AF34F29813A81FA
:1049A0004B815C8160817181828193810E9456BFBD
:1049B000A70196010E946EBB29813A814B815C81DF
:1049C0000E9457BFA30192010E9456BFA501940106
:1049D0000E946EBBA30192010E9457BF26960FB69C
:1049E000F894DEBF0FBECDBFDF91CF911F910F9125
:1049F000FF90EF90DF90CF90BF90AF909F908F90FF
:104A00007F906F905F904F903F902F9008951E82FF
:104A10001D8226CF24E030E03E832D8321CF2F92CC
:104A20003F924F925F926F927F928F929F92AF923E
:104A3000BF92CF92DF92EF92FF920F931F93CF938B
:104A4000DF9300D01F92CDB7DEB71C017A83698354
:104A50008A013C832B8340900402509005026090B1
:104A6000060270900702FA0180809180A280B380D4
:104A7000A50194016091DC0C7091DD0C8091DE0C3D
:104A80009091DF0C0E9408BB87FF27C0EB81FC815F
:104A9000C080D180E280F38020E030E0A901C7012E
:104AA000B6010E9408BB811106C0C12CD12C90EC2C
:104AB000E92E90E4F92EC0920402D0920502E09211
:104AC0000602F09207028092DC0C9092DD0CA0921C
:104AD000DE0CB092DF0C0E94CC15EB81FC81C08013
:104AE000D180E280F38020E030E0A901C701B60167
:104AF0000E9408BB811108C0C0900002D090010242
:104B0000E0900202F0900302C0920402D0920502EB
:104B1000E0920602F0920702F10180819181A28168
:104B2000B3818093D40C9093D50CA093D60CB09302
:104B3000D70CE981FA8180819181A281B381809330
:104B4000D80C9093D90CA093DA0CB093DB0C0E9494
:104B5000CC15F80180809180A280B380A5019401DA
:104B60006091DC0C7091DD0C8091DE0C9091DF0C7B
:104B70000E94B7C118163CF5EB81FC81C080D18042
:104B8000E280F38020E030E0A901C701B6010E9475
:104B900008BB811106C0C12CD12C80ECE82E80E42A
:104BA000F82EC0920402D0920502E0920602F09222
:104BB00007028092DC0C9092DD0CA092DE0CB09289
:104BC000DF0C0E94CC150E9488854092040250920E
:104BD000050260920602709207020F900F900F90EC
:104BE0000F90DF91CF911F910F91FF90EF90DF9089
:104BF000CF90BF90AF909F908F907F906F905F907D
:104C00004F903F902F9008958F929F92AF92BF92B6
:104C1000CF92DF92EF92FF92CF93DF9300D000D03C
:104C20001F921F92CDB7DEB72091F90C3091FA0C8C
:104C30004091FB0C5091FC0C0E9457BF2091ED0C51
:104C40003091EE0C4091EF0C5091F00C0E9457BF48
:104C50006B017C01CD82DE82EF82F8868090C20CEF
:104C60009090C30CA090C40CB090C50C20E030E034
:104C7000A901C501B4010E9408BB87FF0AC0A501B4
:104C80009401C701B6010E9456BF6D837E838F8356
:104C900098872D813E814F8158856091DC0C709101
:104CA000DD0C8091DE0C9091DF0C0E9408BB87FF29
:104CB00010C019821A821B821C829E012F5F3F4FF7
:104CC000AE014B5F5F4F68ED7CE084ED9CE00E949D
:104CD0000F2528960FB6F894DEBF0FBECDBFDF912B
:104CE000CF91FF90EF90DF90CF90BF90AF909F90CB
:104CF0008F9008951F93CF93DF93CDB7DEB72C9796
:104D00000FB6F894DEBF0FBECDBF9091CA0C9817B6
:104D1000F1F1182F60E070E080EA91E40E9404262F
:104D20008091D40C9091D50CA091D60CB091D70C59
:104D300089879A87AB87BC878091D80C9091D90CD2
:104D4000A091DA0CB091DB0C8D839E83AF83B88782
:104D5000E1E0E127F0E0EE0FFF1FE557FD4F608136
:104D6000718180ED91E10E941D8D19821A821B8252
:104D70001C829E012F5F3F4F4CED5CE0BE016B5FDC
:104D80007F4FCE0109960E940F251093CA0C80E038
:104D90002C960FB6F894DEBF0FBECDBFDF91CF913A
:104DA0001F910895682F880F770B80917706909157
:104DB00078060E94E8C29C0190936F0680936E066D
:104DC00081E0232B09F480E008950F931F93CF9384
:104DD000DF93C0916E06D0916F0665E470E0CE015E
:104DE0000E94E8C28C01CE0101960115110571F0F7
:104DF000F801108270E060E00E94FFB625E4F8013F
:104E00002083DF91CF911F910F91089570E060E0B2
:104E1000DF91CF911F910F910C94FFB6CF92DF924B
:104E2000EF92FF920F931F93CF93DF938FE8C82EDB
:104E300082E0D82E94E3E92E97E0F92E04ED1CE0F1
:104E4000D0E0C0E0F60181916F010E94D226882354
:104E500009F44EC00E94E5269B01AC01FE01EE580C
:104E6000F94F8081811104C0809176068823E1F199
:104E7000F80160817181828193810E9457BFF7019F
:104E800060837183828393832196F4E0EF0EF11C9B
:104E90000C5F1F4FC430D105A9F686E40E94D226CC
:104EA0008823C9F00E94E52620E030E0A9010E9495
:104EB000B7C1181684F40E94E52620E030E040E7F0
:104EC00052E40E9451C060930402709305028093E3
:104ED000060290930702DF91CF911F910F91FF90EF
:104EE000EF90DF90CF90089560E070E0CB01C5CFE8
:104EF000F80180819181A281B381F7018083918340
:104F0000A283B383C1CF2091A10E30E0F901E55314
:104F1000F34F80832F5F3F4F237033272093A10EE1
:104F20008091A20E8F5F8093A20E0895DF92EF9280
:104F3000FF920F931F93CF93DF93CDB7DEB76E979A
:104F40000FB6F894DEBF0FBECDBF60911E0D7091FD
:104F50001F0D6115710559F14DE150E08E010F5F94
:104F60001F4FC8010E94AFBA1E8EF8017F01E01AE0
:104F7000F10AD190DD2019F08AE0D812F7CFF801BC
:104F8000EE0DFF1D1082C8010E94C971882379F0BF
:104F9000DD2019F18FEFE81AF80A80911E0D90912B
:104FA0001F0DE80EF91EF0921F0DE0921E0D81E01C
:104FB00020911E0D30911F0D232B09F480E06E9679
:104FC0000FB6F894DEBF0FBECDBFDF91CF911F911A
:104FD0000F91FF90EF90DF90089510921F0D1092A7
:104FE0001E0DE5CF0F931F93CF93DF93CDB7DEB7A1
:104FF0002C970FB6F894DEBF0FBECDBFE4EDFCE0FA
:1050000080859185A285B3854481558166817781AC
:10501000008111812281338109831A832B833C8390
:105020004D835E836F83788789879A87AB87BC8738
:10503000AE01475F5F4FBE016B5F7F4FCE010196B0
:105040000E94569D20EE3CE0AE01475F5F4FBE01DF
:105050006B5F7F4FCE0101960E945D8F2C960FB63D
:10506000F894DEBF0FBECDBFDF91CF911F910F919E
:10507000089588E893E19093460C8093450C8091C5
:105080006F008D7F80936F009091B8108091B91060
:10509000981719F00E949285F7CF1092480C109241
:1050A000470C80916F00826080936F000E9488851A
:1050B00084E690E00E94FE220C94F2278F929F9249
:1050C000AF92BF92CF92EF92FF920F931F93CF9325
:1050D000DF93CDB7DEB760970FB6F894DEBF0FBE93
:1050E000CDBF4A015B010D871E872F87388B8C014E
:1050F000000F111F000F111FC8018C52934F7C012C
:10510000FC0110821182128213820E94F227F701A1
:1051100080829182A282B382C090710620E030E04A
:10512000A9016D857E858F8598890E9408BB0750EF
:105130001D4F882319F08E01035F1F4F8091DC0CF7
:105140009091DD0CA091DE0CB091DF0C4091D80C59
:105150005091D90C6091DA0C7091DB0C8090D40CDA
:105160009090D50CA090D60CB090D70C89829A82E2
:10517000AB82BC824D835E836F83788789879A87F1
:10518000AB87BC87AE01475F5F4FBE016B5F7F4F50
:10519000CE0101960E94569DF801E080F1800281C7
:1051A000138120EE3CE0AE01475F5F4FBE016B5FB5
:1051B0007F4FCE0101960E9420900E948885109218
:1051C000E40C60960FB6F894DEBF0FBECDBFDF9142
:1051D000CF911F910F91FF90EF90CF90BF90AF9024
:1051E0009F908F9008958091B8109091B910891B6D
:1051F0008F7008959091C00095FFFCCF8093C600FA
:105200000895CF92DF92EF92FF920F931F93CF9367
:10521000DF938C01E42EEB01EA948FEFE81609F49A
:105220003EC06991F801808191810E94DDBEF80144
:10523000808191810E94D5BEF82EFE013197808138
:105240008F15E1F098E7C92E9DE1D92EF6018491E2
:10525000FFEFCF1ADF0A81110EC083E5C82E8CE064
:10526000D82EF6018491FFEFCF1ADF0A882331F0A0
:105270000E94FA28F6CF0E94FA28E8CF80914407CE
:10528000909145078F0D911D90934507809344079A
:10529000F80180819181019691838083BDCFDF9158
:1052A000CF911F910F91FF90EF90DF90CF900895D5
:1052B000CF93DF9300D000D0CDB7DEB780916106E9
:1052C000813009F08CC00E941C7E5F9A8A9A479AAE
:1052D0009FB7F894809108018160809308019FBF77
:1052E000479A129A8091890390918A03A0918B0327
:1052F000B0918C0389839A83AB83BC8384E190E073
:105300009E838D8344E0BE016F5F7F4FCE01059683
:105310000E9401298091E00C9091E10CA091E20C97
:10532000B091E30C8093510690935206A0935306DC
:10533000B09354068091DC0C9091DD0CA091DE0CB2
:10534000B091DF0C8093550690935606A0935706B4
:10535000B09358068091D80C9091D90CA091DA0C9A
:10536000B091DB0C8093590690935A06A0935B068C
:10537000B0935C068091D40C9091D50CA091D60C82
:10538000B091D70C80935D0690935E06A0935F0664
:10539000B093600644E064E676E0CE0105960E9494
:1053A000012944E061E576E0CE0105960E940129DD
:1053B00044E065E576E0CE0105960E94012944E0CF
:1053C00069E576E0CE0105960E94012944E06DE58D
:1053D00076E0CE0105960E9401291092610626967C
:1053E0000FB6F894DEBF0FBECDBFDF91CF91089509
:1053F0003F924F925F926F927F928F929F92AF9265
:10540000BF92CF92DF92EF92FF920F931F93CF93B1
:10541000DF9300D000D0CDB7DEB76C01FC01E05CBB
:10542000F34F3490029719F481E08093440C760195
:10543000EE0CFF1CEE0CFF1CF701EC5CF34F8590AB
:105440009590A590B490632D032C000C770B880BDE
:10545000990B0E940FBB2B013C0120E030E040EC97
:105460005FE3C501B4010E946EBBA30192010E94DB
:105470006EBBAB01BC0100E010E09801C6010E94C8
:105480005E28F701E85DF34F2591359145915491E0
:10549000C301B2010E946EBB2B013C0120E030E051
:1054A000A9010E9408BB882309F458C000E010E05D
:1054B0009801B301A2017058C6010E945E2886E0DF
:1054C000E5E8F2E0DE01119601900D928A95E1F790
:1054D000F601EE0FFF1F81E090E08C0F9D1FE80F9B
:1054E000F91F6081718116161706C4F008E71DE1E7
:1054F000F80184910F5F1F4F81110BC006E01CE083
:10550000F80184910F5F1F4F882331F00E94FA2821
:10551000F7CF0E94FA28ECCF6AE070E0072E000C6B
:10552000880B990B0E940FBB9B01AC01F701E75060
:10553000FD4F60817181828193810E9451C04B0136
:105540005C01A3019201C301B2010E9457BFAB01EC
:10555000BC0195018401C6010E945E28F2E0CF16CD
:10556000D10489F5609148077091490780914A07F5
:1055700090914B072B013C01E89477F813140CF041
:1055800079C077FA709477F87094BB24B39420E0D4
:1055900030E0A9010E94B7C118160CF474C0B12CF8
:1055A00081E08093420C00E010E09801B301A20179
:1055B00082E090E00E945E28BB2009F468C010924F
:1055C000430C1092440CF601EF5CF84F81E08083AD
:1055D00087010B51134FF80110821182128213823E
:1055E000C6010E94C710F701E650F44F659175910E
:1055F0008591949197012C52334F6901F701EF5037
:10560000F34F20813181428153810E9457BFF801BD
:1056100020813181428153810E9457BFF60160830E
:105620007183828393830E94F22797012C5C384F09
:10563000F60180819181A281B381F90180839183F8
:10564000A283B38326960FB6F894DEBF0FBECDBFFC
:10565000DF91CF911F910F91FF90EF90DF90CF904E
:10566000BF90AF909F908F907F906F905F904F9082
:105670003F900895BB24B39420E030E0A9010E943C
:1056800008BB87FF8CCF81E08093430C8CCF1092B6
:10569000420C97CFCF93DF930E94A811E091D20CD8
:1056A000F0E0E553F34F8081882379F0C7EEDBE02B
:1056B000FE0184912196882319F00E94FA28F8CFE0
:1056C0008AE0DF91CF910C94FA28DF91CF91089571
:1056D0000F931F93CF93DF93182F092FCFE6D6E0B8
:1056E000FE0184912196811111C0C12FD02FFE019E
:1056F0008491219681110DC0C6E5D6E0FE0184910A
:105700002196882349F00E94FA28F8CF0E94FA28AF
:10571000E7CF0E94FA28EBCFDF91CF911F910F9135
:1057200008950F931F93CF93DF93162F072FEC014C
:10573000FE0184912196811108C0C12FD02F89913B
:10574000882331F00E94FA28FACF0E94FA28F0CF7D
:10575000DF91CF911F910F9108958F929F92AF92F9
:10576000BF92CF92DF92EF92FF920F931F93CF934E
:10577000DF93CDB7DEB7EA970FB6F894DEBF0FBE62
:10578000CDBF80910212882309F48FC08CEC93E185
:105790000E94371C8CEC93E10E94FD1D10920012B8
:1057A0001092FF1180910212882309F47EC0E090CC
:1057B0007706F0907806109201128091CF1388231B
:1057C00021F08CEC93E10E94FD1D1D8218861C8245
:1057D0001B8281E893E09A8389838EE292E1909321
:1057E0004E1280934D12F70180818F3209F07BC0F9
:1057F0006FE270E0C7010E94E8C28C010F5F1F4F8B
:10580000CE0101965C010115110509F472C06FE229
:1058100070E0C8010E94E8C26C01009709F46AC0F8
:105820000817190708F066C04C01801A910AA401F4
:10583000B801CE0180960E9411C3E0E2F0E0EC0FC7
:10584000FD1FE80DF91D10828E01005E1F4FF8014B
:1058500081918F01882319F00E94FA28F8CF8AE0FD
:105860000E94FA2860914D1270914E1261157105D7
:1058700079F16C5F7F4F21E0AE01405E5F4FCE015A
:1058800005960E948B21811126C0BE01605E7F4F6C
:1058900080E597E00E94912B8EE20E94FA288AE030
:1058A0000E94FA28C5010E94E822EA960FB6F894F1
:1058B000DEBF0FBECDBFDF91CF911F910F91FF9043
:1058C000EF90DF90CF90BF90AF909F908F90089512
:1058D00070E060E0D0CFB0924E12A0924D128601DF
:1058E0000F5F1F4F90CF8FE492E190934E12809301
:1058F0004D12870160914D1270914E126115710524
:1059000011F16C5F7F4F18A21BA222E0A801CE010B
:1059100080960E948B21811119C0F12CCE018096B6
:105920000E94061EF11027C09AE2E92E97E0F92E98
:10593000F7018491FFEFEF1AFF0A882309F43FC0B3
:105940000E94FA28F5CF70E060E0DDCFCE018096AE
:105950000E942370882309F361E0CE0180960E94A3
:105960001D1C0097D1F225EEFC0120831BA20E9492
:10597000DB17F82ED3CF82E4E82E87E0F82EF7016C
:105980008491FFEFEF1AFF0A882319F00E94FA288A
:10599000F6CFF80181918F01882319F00E94FA282F
:1059A000F8CF8AE00E94FA2810927D1410927E149B
:1059B00010927F1410928014CE01019674CFF801DA
:1059C00081918F01882319F00E94FA28F8CF8EE286
:1059D0000E94FA28F1CFCF92DF92EF92FF920F93BD
:1059E0001F93CF93DF93CDB7DEB7A0970FB6F89490
:1059F000DEBF0FBECDBF611571058105910579F13F
:105A000000E0C42ED12CF12CE12CA70196010E94BC
:105A1000FBBE11E0100FE1E0F0E0EC0FFD1FE00F26
:105A2000F11D07FDFA956083B901CA01012F6115C7
:105A300071058105910549F7115010F1E1E0F0E0A1
:105A4000EC0FFD1FE10FF11D17FDFA95908187E323
:105A50009A3008F480E3890F0E94FA28EDCF80E3A2
:105A6000A0960FB6F894DEBF0FBECDBFDF91CF91E9
:105A70001F910F91FF90EF90DF90CF900C94FA2838
:105A8000A0960FB6F894DEBF0FBECDBFDF91CF91C9
:105A90001F910F91FF90EF90DF90CF900895CF92DC
:105AA000DF92EF92FF92CF93DF936A017B01EC01CB
:105AB000FE0184912196882319F00E94FA28F8CFDC
:105AC0004AE0C701B601DF91CF91FF90EF90DF90E0
:105AD000CF900C94EB2CCF92DF92EF92FF926B0160
